{
  "_format": "hh-sol-artifact-1",
  "contractName": "BestYouTubeVideos",
  "sourceName": "contracts/BestYouTubeVideos.sol",
  "abi": [
    {
      "inputs": [],
      "stateMutability": "nonpayable",
      "type": "constructor"
    },
    {
      "anonymous": false,
      "inputs": [
        {
          "indexed": true,
          "internalType": "address",
          "name": "from",
          "type": "address"
        },
        {
          "indexed": false,
          "internalType": "uint256",
          "name": "timestamp",
          "type": "uint256"
        },
        {
          "indexed": false,
          "internalType": "string",
          "name": "videoLink",
          "type": "string"
        }
      ],
      "name": "NewVideoAdded",
      "type": "event"
    },
    {
      "inputs": [
        {
          "internalType": "string",
          "name": "_videoLink",
          "type": "string"
        }
      ],
      "name": "addVideo",
      "outputs": [],
      "stateMutability": "nonpayable",
      "type": "function"
    },
    {
      "inputs": [],
      "name": "getAllVideos",
      "outputs": [
        {
          "components": [
            {
              "internalType": "address",
              "name": "sender",
              "type": "address"
            },
            {
              "internalType": "string",
              "name": "link",
              "type": "string"
            },
            {
              "internalType": "uint256",
              "name": "timestamp",
              "type": "uint256"
            }
          ],
          "internalType": "struct BestYouTubeVideos.Video[]",
          "name": "",
          "type": "tuple[]"
        }
      ],
      "stateMutability": "view",
      "type": "function"
    },
    {
      "inputs": [],
      "name": "getTotalVideos",
      "outputs": [
        {
          "internalType": "uint256",
          "name": "",
          "type": "uint256"
        }
      ],
      "stateMutability": "view",
      "type": "function"
    }
  ],
  "bytecode": "0x608060405234801561001057600080fd5b50610b79806100206000396000f3fe608060405234801561001057600080fd5b50600436106100415760003560e01c8063043e2f4214610046578063c38e343414610064578063cd0a496314610082575b600080fd5b61004e61009e565b60405161005b9190610867565b60405180910390f35b61006c6100e9565b60405161007991906107e5565b60405180910390f35b61009c6004803603810190610097919061061d565b61023a565b005b60006100e16040518060400160405280601881526020017f5765206861766520256420746f74616c20766964656f732100000000000000008152506000546103b1565b600054905090565b60606001805480602002602001604051908101604052809291908181526020016000905b8282101561023157838290600052602060002090600302016040518060600160405290816000820160009054906101000a900473ffffffffffffffffffffffffffffffffffffffff1673ffffffffffffffffffffffffffffffffffffffff1673ffffffffffffffffffffffffffffffffffffffff16815260200160018201805461019690610a42565b80601f01602080910402602001604051908101604052809291908181526020018280546101c290610a42565b801561020f5780601f106101e45761010080835404028352916020019161020f565b820191906000526020600020905b8154815290600101906020018083116101f257829003601f168201915b505050505081526020016002820154815250508152602001906001019061010d565b50505050905090565b600160008082825461024c919061096e565b925050819055506102926040518060400160405280601581526020017f257320686173206164646564206120766964656f2100000000000000000000008152503361044d565b600160405180606001604052803373ffffffffffffffffffffffffffffffffffffffff16815260200183815260200142815250908060018154018082558091505060019003906000526020600020906003020160009091909190915060008201518160000160006101000a81548173ffffffffffffffffffffffffffffffffffffffff021916908373ffffffffffffffffffffffffffffffffffffffff1602179055506020820151816001019080519060200190610351929190610512565b506040820151816002015550503373ffffffffffffffffffffffffffffffffffffffff167f0a593189fe85b7ec1550b1d8ec5a4f5f8358792e2539287a3abb9d6dcc32899e42836040516103a6929190610882565b60405180910390a250565b61044982826040516024016103c7929190610837565b6040516020818303038152906040527f9710a9d0000000000000000000000000000000000000000000000000000000007bffffffffffffffffffffffffffffffffffffffffffffffffffffffff19166020820180517bffffffffffffffffffffffffffffffffffffffffffffffffffffffff83818316178352505050506104e9565b5050565b6104e58282604051602401610463929190610807565b6040516020818303038152906040527f319af333000000000000000000000000000000000000000000000000000000007bffffffffffffffffffffffffffffffffffffffffffffffffffffffff19166020820180517bffffffffffffffffffffffffffffffffffffffffffffffffffffffff83818316178352505050506104e9565b5050565b60008151905060006a636f6e736f6c652e6c6f679050602083016000808483855afa5050505050565b82805461051e90610a42565b90600052602060002090601f0160209004810192826105405760008555610587565b82601f1061055957805160ff1916838001178555610587565b82800160010185558215610587579182015b8281111561058657825182559160200191906001019061056b565b5b5090506105949190610598565b5090565b5b808211156105b1576000816000905550600101610599565b5090565b60006105c86105c3846108d7565b6108b2565b9050828152602081018484840111156105e057600080fd5b6105eb848285610a00565b509392505050565b600082601f83011261060457600080fd5b81356106148482602086016105b5565b91505092915050565b60006020828403121561062f57600080fd5b600082013567ffffffffffffffff81111561064957600080fd5b610655848285016105f3565b91505092915050565b600061066a8383610777565b905092915050565b61067b816109c4565b82525050565b61068a816109c4565b82525050565b600061069b82610918565b6106a5818561093b565b9350836020820285016106b785610908565b8060005b858110156106f357848403895281516106d4858261065e565b94506106df8361092e565b925060208a019950506001810190506106bb565b50829750879550505050505092915050565b600061071082610923565b61071a818561094c565b935061072a818560208601610a0f565b61073381610b32565b840191505092915050565b600061074982610923565b610753818561095d565b9350610763818560208601610a0f565b61076c81610b32565b840191505092915050565b600060608301600083015161078f6000860182610672565b50602083015184820360208601526107a78282610705565b91505060408301516107bc60408601826107c7565b508091505092915050565b6107d0816109f6565b82525050565b6107df816109f6565b82525050565b600060208201905081810360008301526107ff8184610690565b905092915050565b60006040820190508181036000830152610821818561073e565b90506108306020830184610681565b9392505050565b60006040820190508181036000830152610851818561073e565b905061086060208301846107d6565b9392505050565b600060208201905061087c60008301846107d6565b92915050565b600060408201905061089760008301856107d6565b81810360208301526108a9818461073e565b90509392505050565b60006108bc6108cd565b90506108c88282610a74565b919050565b6000604051905090565b600067ffffffffffffffff8211156108f2576108f1610b03565b5b6108fb82610b32565b9050602081019050919050565b6000819050602082019050919050565b600081519050919050565b600081519050919050565b6000602082019050919050565b600082825260208201905092915050565b600082825260208201905092915050565b600082825260208201905092915050565b6000610979826109f6565b9150610984836109f6565b9250827fffffffffffffffffffffffffffffffffffffffffffffffffffffffffffffffff038211156109b9576109b8610aa5565b5b828201905092915050565b60006109cf826109d6565b9050919050565b600073ffffffffffffffffffffffffffffffffffffffff82169050919050565b6000819050919050565b82818337600083830152505050565b60005b83811015610a2d578082015181840152602081019050610a12565b83811115610a3c576000848401525b50505050565b60006002820490506001821680610a5a57607f821691505b60208210811415610a6e57610a6d610ad4565b5b50919050565b610a7d82610b32565b810181811067ffffffffffffffff82111715610a9c57610a9b610b03565b5b80604052505050565b7f4e487b7100000000000000000000000000000000000000000000000000000000600052601160045260246000fd5b7f4e487b7100000000000000000000000000000000000000000000000000000000600052602260045260246000fd5b7f4e487b7100000000000000000000000000000000000000000000000000000000600052604160045260246000fd5b6000601f19601f830116905091905056fea264697066735822122049556a737a89ef08f1571dba36cfb8a42b061e93ca3843f0b75a56261e71da9464736f6c63430008040033",
  "linkReferences": {},
  "deployedLinkReferences": {}
}